{
  "_format": "hh-sol-artifact-1",
  "contractName": "Healthcare",
  "sourceName": "contracts/healthcare.sol",
  "abi": [
    {
      "anonymous": false,
      "inputs": [
        {
          "indexed": true,
          "internalType": "uint256",
          "name": "id",
          "type": "uint256"
        },
        {
          "indexed": false,
          "internalType": "string",
          "name": "details",
          "type": "string"
        },
        {
          "indexed": true,
          "internalType": "address",
          "name": "createdBy",
          "type": "address"
        }
      ],
      "name": "WasteCreated",
      "type": "event"
    },
    {
      "anonymous": false,
      "inputs": [
        {
          "indexed": true,
          "internalType": "uint256",
          "name": "id",
          "type": "uint256"
        },
        {
          "indexed": false,
          "internalType": "enum Healthcare.WasteStatus",
          "name": "status",
          "type": "uint8"
        }
      ],
      "name": "WasteStatusUpdated",
      "type": "event"
    },
    {
      "inputs": [
        {
          "internalType": "string",
          "name": "_details",
          "type": "string"
        }
      ],
      "name": "createWasteRecord",
      "outputs": [],
      "stateMutability": "nonpayable",
      "type": "function"
    },
    {
      "inputs": [],
      "name": "getWasteCount",
      "outputs": [
        {
          "internalType": "uint256",
          "name": "",
          "type": "uint256"
        }
      ],
      "stateMutability": "view",
      "type": "function"
    },
    {
      "inputs": [
        {
          "internalType": "uint256",
          "name": "_id",
          "type": "uint256"
        }
      ],
      "name": "getWasteRecord",
      "outputs": [
        {
          "internalType": "uint256",
          "name": "",
          "type": "uint256"
        },
        {
          "internalType": "string",
          "name": "",
          "type": "string"
        },
        {
          "internalType": "enum Healthcare.WasteStatus",
          "name": "",
          "type": "uint8"
        },
        {
          "internalType": "address",
          "name": "",
          "type": "address"
        }
      ],
      "stateMutability": "view",
      "type": "function"
    },
    {
      "inputs": [
        {
          "internalType": "uint256",
          "name": "_id",
          "type": "uint256"
        },
        {
          "internalType": "enum Healthcare.WasteStatus",
          "name": "_status",
          "type": "uint8"
        }
      ],
      "name": "updateWasteStatus",
      "outputs": [],
      "stateMutability": "nonpayable",
      "type": "function"
    }
  ],
  "bytecode": "0x608060405234801561001057600080fd5b50610f04806100206000396000f3fe608060405234801561001057600080fd5b506004361061004c5760003560e01c80631e548d191461005157806354d809051461008457806355ef7148146100a0578063e6a2b57e146100be575b600080fd5b61006b60048036038101906100669190610604565b6100da565b60405161007b9493929190610788565b60405180910390f35b61009e600480360381019061009991906107f9565b6102a4565b005b6100a8610406565b6040516100b59190610839565b60405180910390f35b6100d860048036038101906100d39190610989565b610410565b005b600060606000806000851180156100f357506001548511155b610132576040517f08c379a000000000000000000000000000000000000000000000000000000000815260040161012990610a1e565b60405180910390fd5b60008060008781526020019081526020016000206040518060800160405290816000820154815260200160018201805461016b90610a6d565b80601f016020809104026020016040519081016040528092919081815260200182805461019790610a6d565b80156101e45780601f106101b9576101008083540402835291602001916101e4565b820191906000526020600020905b8154815290600101906020018083116101c757829003601f168201915b505050505081526020016002820160009054906101000a900460ff166003811115610212576102116106d0565b5b6003811115610224576102236106d0565b5b81526020016002820160019054906101000a900473ffffffffffffffffffffffffffffffffffffffff1673ffffffffffffffffffffffffffffffffffffffff1673ffffffffffffffffffffffffffffffffffffffff1681525050905080600001518160200151826040015183606001519450945094509450509193509193565b6000821180156102b657506001548211155b6102f5576040517f08c379a00000000000000000000000000000000000000000000000000000000081526004016102ec90610a1e565b60405180910390fd5b600080600084815260200190815260200160002090508060020160019054906101000a900473ffffffffffffffffffffffffffffffffffffffff1673ffffffffffffffffffffffffffffffffffffffff163373ffffffffffffffffffffffffffffffffffffffff161461039d576040517f08c379a000000000000000000000000000000000000000000000000000000000815260040161039490610b10565b60405180910390fd5b818160020160006101000a81548160ff021916908360038111156103c4576103c36106d0565b5b0217905550827f85868c0e3ac3593b57fb4796e55f805444e9c4090554cb5830026e2bb5489c0b836040516103f99190610b30565b60405180910390a2505050565b6000600154905090565b6000815111610454576040517f08c379a000000000000000000000000000000000000000000000000000000000815260040161044b90610b97565b60405180910390fd5b6001600081548092919061046790610be6565b91905055506040518060800160405280600154815260200182815260200160006003811115610499576104986106d0565b5b81526020013373ffffffffffffffffffffffffffffffffffffffff1681525060008060015481526020019081526020016000206000820151816000015560208201518160010190816104eb9190610dda565b5060408201518160020160006101000a81548160ff02191690836003811115610517576105166106d0565b5b021790555060608201518160020160016101000a81548173ffffffffffffffffffffffffffffffffffffffff021916908373ffffffffffffffffffffffffffffffffffffffff1602179055509050503373ffffffffffffffffffffffffffffffffffffffff166001547f4120ec2b05fe36fa530b516dd548b4b77cf7b39bb0f0c5e78b86152fd6263737836040516105af9190610eac565b60405180910390a350565b6000604051905090565b600080fd5b600080fd5b6000819050919050565b6105e1816105ce565b81146105ec57600080fd5b50565b6000813590506105fe816105d8565b92915050565b60006020828403121561061a576106196105c4565b5b6000610628848285016105ef565b91505092915050565b61063a816105ce565b82525050565b600081519050919050565b600082825260208201905092915050565b60005b8381101561067a57808201518184015260208101905061065f565b60008484015250505050565b6000601f19601f8301169050919050565b60006106a282610640565b6106ac818561064b565b93506106bc81856020860161065c565b6106c581610686565b840191505092915050565b7f4e487b7100000000000000000000000000000000000000000000000000000000600052602160045260246000fd5b600481106107105761070f6106d0565b5b50565b6000819050610721826106ff565b919050565b600061073182610713565b9050919050565b61074181610726565b82525050565b600073ffffffffffffffffffffffffffffffffffffffff82169050919050565b600061077282610747565b9050919050565b61078281610767565b82525050565b600060808201905061079d6000830187610631565b81810360208301526107af8186610697565b90506107be6040830185610738565b6107cb6060830184610779565b95945050505050565b600481106107e157600080fd5b50565b6000813590506107f3816107d4565b92915050565b600080604083850312156108105761080f6105c4565b5b600061081e858286016105ef565b925050602061082f858286016107e4565b9150509250929050565b600060208201905061084e6000830184610631565b92915050565b600080fd5b600080fd5b7f4e487b7100000000000000000000000000000000000000000000000000000000600052604160045260246000fd5b61089682610686565b810181811067ffffffffffffffff821117156108b5576108b461085e565b5b80604052505050565b60006108c86105ba565b90506108d4828261088d565b919050565b600067ffffffffffffffff8211156108f4576108f361085e565b5b6108fd82610686565b9050602081019050919050565b82818337600083830152505050565b600061092c610927846108d9565b6108be565b90508281526020810184848401111561094857610947610859565b5b61095384828561090a565b509392505050565b600082601f8301126109705761096f610854565b5b8135610980848260208601610919565b91505092915050565b60006020828403121561099f5761099e6105c4565b5b600082013567ffffffffffffffff8111156109bd576109bc6105c9565b5b6109c98482850161095b565b91505092915050565b7f496e76616c696420776173746520494400000000000000000000000000000000600082015250565b6000610a0860108361064b565b9150610a13826109d2565b602082019050919050565b60006020820190508181036000830152610a37816109fb565b9050919050565b7f4e487b7100000000000000000000000000000000000000000000000000000000600052602260045260246000fd5b60006002820490506001821680610a8557607f821691505b602082108103610a9857610a97610a3e565b5b50919050565b7f4f6e6c79207468652063726561746f722063616e20757064617465207374617460008201527f7573000000000000000000000000000000000000000000000000000000000000602082015250565b6000610afa60228361064b565b9150610b0582610a9e565b604082019050919050565b60006020820190508181036000830152610b2981610aed565b9050919050565b6000602082019050610b456000830184610738565b92915050565b7f44657461696c73206d757374206e6f7420626520656d70747900000000000000600082015250565b6000610b8160198361064b565b9150610b8c82610b4b565b602082019050919050565b60006020820190508181036000830152610bb081610b74565b9050919050565b7f4e487b7100000000000000000000000000000000000000000000000000000000600052601160045260246000fd5b6000610bf1826105ce565b91507fffffffffffffffffffffffffffffffffffffffffffffffffffffffffffffffff8203610c2357610c22610bb7565b5b600182019050919050565b60008190508160005260206000209050919050565b60006020601f8301049050919050565b600082821b905092915050565b600060088302610c907fffffffffffffffffffffffffffffffffffffffffffffffffffffffffffffffff82610c53565b610c9a8683610c53565b95508019841693508086168417925050509392505050565b6000819050919050565b6000610cd7610cd2610ccd846105ce565b610cb2565b6105ce565b9050919050565b6000819050919050565b610cf183610cbc565b610d05610cfd82610cde565b848454610c60565b825550505050565b600090565b610d1a610d0d565b610d25818484610ce8565b505050565b5b81811015610d4957610d3e600082610d12565b600181019050610d2b565b5050565b601f821115610d8e57610d5f81610c2e565b610d6884610c43565b81016020851015610d77578190505b610d8b610d8385610c43565b830182610d2a565b50505b505050565b600082821c905092915050565b6000610db160001984600802610d93565b1980831691505092915050565b6000610dca8383610da0565b9150826002028217905092915050565b610de382610640565b67ffffffffffffffff811115610dfc57610dfb61085e565b5b610e068254610a6d565b610e11828285610d4d565b600060209050601f831160018114610e445760008415610e32578287015190505b610e3c8582610dbe565b865550610ea4565b601f198416610e5286610c2e565b60005b82811015610e7a57848901518255600182019150602085019450602081019050610e55565b86831015610e975784890151610e93601f891682610da0565b8355505b6001600288020188555050505b505050505050565b60006020820190508181036000830152610ec68184610697565b90509291505056fea2646970667358221220bb8972d281181979ed9798c0399395474c2ce7f9a2c3d362bd5c5adb324fc9bf64736f6c63430008180033",
  "linkReferences": {},
  "deployedLinkReferences": {}
}